:03000000020008F3
:0300610002000397
:0500030012006480FE04
:0300640012009EE9
:0E0067001200ADAA82758252C0021200B6D0FD
:0900750002BA460575800180E91C
:08007E00BA520575800280E111
:08008600BA570575800380D90B
:08008E00BA4C0575800480D115
:08009600BA53CE75800080C949
:0E009E00759850758920758BFD758DFDD28E7D
:0100AC002231
:0500AD0010980280FB29
:0400B2008599822288
:0300B600858299A7
:0500B90010990280FB1C
:0100BE00221F
:06003700E478FFF6D8FD9D
:080015007900E94400601B7A48
:05001D00009000C37813
:030022000075A0C6
:0A00250000E493F2A308B8000205FE
:08002F00A0D9F4DAF275A0FF7C
:08003D007800E84400600A7934
:030045000075A0A3
:0600480000E4F309D8FCFE
:08004E007800E84400600C7921
:0B00560000900000E4F0A3D8FCD9FAF1
:03000800758107F8
:0A000B001200BFE58260030200034B
:0400BF007582002224
:00000001FF
