:0400000002002332A5
:03000B000201C02F
:0100130032BA
:03001B0002023DA1
:07007C007510D075118A75A3
:06008300129875133A7596
:07008900149875153AE4F527
:0400900018F51975D1
:060094001A8B751B0375B9
:06009A001C00751D00753D
:0600A0001E00751F007533
:0600A60020007521007529
:0500AC00222075230075
:0300B10002001E2C
:05001E0012037B80FECF
:0900B400C025858125AA827B008C
:0300BD00BB08007D
:0E00C000500CC2B6EA2A92B4FAD2B60B80EF08
:0200CE007A00B6
:0300D000BA08006B
:0C00D3005019C2B6E52524FDF8E6339272
:0C00DF00B4E52524FDF8E625E0F6D2B6D5
:0300EB000A80E2A6
:0300EE00D02522F8
:0A00F100C025858125AA82C2B57BD7
:0100FB000103
:0C00FC00C002C003E52524FDF8E6C0E0CA
:0E0108008A821200B41581D003D002DBE7D248
:04011600B5D0252219
:0E011A007401C0E075820C1200F11581E4C082
:0E012800E075820F1200F1158174FFC0E075C2
:0E01360082091200F115817407C0E075820B7A
:0E0144001200F11581E4C0E075820A1200F18C
:0401520015817A0198
:050156007408B5020071
:0E015B004012C002740FC0E08A821200F1153B
:0601690081D0020A80E7CC
:01016F00226D
:08017000AA82AB837C007D0034
:09017800C3EC9AED9B500B7E5A7A
:09018100DEFE0CBC00F10D80EE65
:01018A002252
:0A018B0075891143A802AA10AB11F8
:0E019500E4FCFDC39AFAE49BFB74019CE49D1C
:0501A3008A168B17AA6B
:0A01A800178A8CAA168A8A758DFC4E
:0E01B200758B18D2AFD2A9D28CD2ABD28E22CE
:0C01C000C0E0C0D075D0087401B51F3736
:0A01CC00AA14AB15E4FCFDC39AFA77
:0C01D600E49BFB74019CFCE49DFD8A1678
:0701E2008B17AA178A8CAAF3
:0A01E900167B008A8A7401B5200419
:0401F300C2A7800718
:0701F7007402B52002C2A64C
:0501FE00751F008035B3
:0A020300AA12AB13E4FCFDC39AFA43
:0C020D00E49BFB74019CFCE49DFD8A1640
:070219008B17AA178A8CAABB
:0A022000167B008A8A7401B52004E1
:04022A00D2A78007D0
:07022E007402B52002D2A604
:03023500751F0131
:05023800D0D0D0E0323F
:0E023D00C0E0C0D075D000758DFC758B180523
:06024B0018E4B5180205DD
:010251001993
:06025200E51AB51828E5CD
:060258001BB51923E4F5BB
:04025E0018F5190571
:070262001E743CB51E177568
:070269001E00051D743CB5E9
:060270001D0D751D0005C7
:070276001C7418B51C037590
:02027D001C0063
:05027F00D0D0D0E032F8
:0A028400C025858125AA82C00275FD
:0C028E0082081200F11581E52524FCF81F
:0D029A008602C0027582071200F11581E591
:0C02A7002524FAF88602C00275820612B7
:0C02B30000F11581E52524F8F88602C052
:0C02BF00027582051200F11581E525246E
:0E02CB00F6F88602C0027582041200F1158159
:0C02D900E52524F4F88602C002758203BB
:0C02E5001200F11581E52524F2F88602D4
:0C02F100C0027582021200F11581E525A3
:0E02FD0024F0F88602C0027582011200F1158D
:04030B0081D0252256
:0C030F00AA82AB838A20BA0116BB00133F
:0A031B007512347513089007D01214
:0603250001707512E8757D
:03032B0013032297
:0A032E00BA0215BB00127512E87543
:0903380013039007D01201707547
:050341001234751308E1
:010346002294
:0D03470090000112030F9007D0120170907A
:05035400000202030F8E
:060359007590FF75240001
:0C035F00C3E5246480948A500FE590F4FC
:0C036B00F59090012C120170052480E830
:040377007590FF225C
:0A037B00C025E581F5252413F58166
:0C0385007A007B007C007D00A825087633
:0C03910000E5252402F87608E804F9775E
:0E039D001E740228FFC000A8077600D000C022
:0C03AB0001E5252409F9740328F7D001AE
:0C03B700C000E5252409F886007617D068
:0C03C30000C001E525240AF9740428F7A5
:0C03CF00D001C000E525240AF886007665
:0C03DB001ED000C001E525240BF97405BC
:0C03E70028F7D001C000E525240BF886A3
:0C03F300007600E5252408F87601D00013
:0C03FF00D2B2D2B3D2A0D2A17512DC752C
:06040B0013057514547581
:0C041100156FC002C003C004C005C00786
:0B041D00C000C00112011A12018B1276
:0E0428000347120359D001D000D007D005D0F1
:0504360004D003D00218
:0C043B007431B52227900001C002C003FC
:0E044700C004C005C007C000C00112030FD0E2
:0E04550001D000D007D005D004D003D002752E
:040463002220802AA9
:0C0467007432B52225900002C002C003D0
:0E047300C004C005C007C000C00112030FD0B6
:0E04810001D000D007D005D004D003D0027502
:02048F00222029
:0604910030B2030205F188
:05049700BA0102800320
:03049C000205F165
:0E049F0090000AC003C004C005C007C000C022
:0E04AD0001120170D001D000D007D005D0049C
:0804BB00D00330B2030205F189
:0C04C300C000E5252408F8B60102800402
:0404CF00D0008023B6
:0E04D300D000900001C003C004C005C007C0E7
:0E04E10000C00112030FD001D000D007D005DB
:0704EF00D004D0030205F167
:0C04F600C000E5252408F8B602028004CE
:04050200D000806F36
:0A050600A82508B60004D000800EFE
:08051000A82508B603028004CF
:04051800D000802E61
:02051C00D0000D
:0C051E00C005C001A92509E728FAD0019A
:0E052A00C000A802068605D000BD180280059C
:05053800D0050205F1F1
:0D053D00D005C000A8027600D0000205F134
:0C054A00C005C001A92509E728FAD0016E
:0E055600C000A802068605D000BD3C0280054C
:05056400D0050205F1C5
:0C056900D005C000A8027600D000807C05
:0C057500C000E5252408F8B60304D000FF
:02058100806E8A
:0A058300E5252408F8B60402800400
:04058D00D0008046D4
:08059100D000E4B52102800E48
:070599007401B52102801777
:0705A0007402B5214C80201C
:0A05A700051CC3E51C648094984015
:0605B1003F751C00803ABA
:0A05B700051DC3E51D648094BC40DF
:0605C1002F751D00802AC9
:0A05C700051EC3E51E648094BC40CD
:0605D1001F751E00801AD8
:0C05D700C000E5252408F8B605028004E9
:0405E300D000800ABA
:0905E700D000051AE4B51A020562
:0105F0001BEF
:0605F10030B30302073FD6
:0505F700BB01028003BE
:0305FC0002073FB4
:0E05FF0090000AC004C005C007C000C0011271
:0E060D000170D001D000D007D005D00430B36A
:04061B000302073F90
:0C061F00C000E5252408F8B601028004A4
:04062B00D000801F5C
:0E062F00D000900002C004C005C007C000C08B
:0E063D000112030FD001D000D007D005D00469
:03064B0002073F64
:0C064E00C000E5252408F8B60202800474
:04065A00D0008076D6
:0A065E00A82508B60004D000800EA5
:08066800A82508B60302800476
:04067000D000803303
:02067400D000B4
:0C067600C005C001A92509E728FAD00141
:0E068200C000A802168605D000C374808DF05B
:0C06900063F08095F0D005500302073F96
:0B069C00C000A8027617D00002073F44
:0C06A700C005C001A92509E728FAD00110
:0E06B300C000A802168605D000C374808DF02A
:0E06C10063F08095F0D0054075C000A8027669
:0506CF003BD000806B30
:0C06D400C000E5252408F8B60304D0009F
:0206E000805D3B
:0A06E200E5252408F8B604028004A0
:0406EC00D000803486
:0906F000D000E521700C151CE599
:0906F9001C30E742751C17803D1E
:080702007401B5210C151DE581
:09070A001D30E731751D3B802C08
:080713007402B52127151EE553
:09071B001E30E720751E3B801B17
:0C072400C000E5252408F8B6050280049A
:04073000D000800B6A
:0A073400D000151A74FFB51A021563
:01073E001B9F
:06073F0030A0030207EEEA
:05074500BC010280036D
:03074A000207EEB5
:0E074D0090000AC005C007C000C00112017074
:0E075B00D001D000D007D00530A0030207EE79
:0C076900C000E5252408F8B60102800459
:04077500D000800B25
:0B077900E5252408F87602D000806A15
:0C078400C000E5252408F8B6020280043D
:04079000D000800B0A
:0B079400E5252408F87603D000804F14
:0C079F00C000E5252408F8B60302800421
:0407AB00D000800BEF
:0B07AF00E5252408F87604D000803413
:0C07BA00C000E5252408F8B60402800405
:0407C600D000800BD4
:0B07CA00E5252408F87605D000801912
:0C07D500C000E5252408F8B605028004E9
:0407E100D0008009BB
:0907E500E5252408F87601D00096
:0E07EE0020A175BD017290000AC007C000C0B6
:0E07FC0001120170D001D000D00720A15DC015
:0C080A0000E5252408F8B60104D00080A9
:010816004F92
:0A081700E5252408F8B6020280046B
:04082100D00080196A
:0A082500A8250806A82508B606025B
:02082F00800443
:04083100D000803142
:09083500A825087600D0008028F7
:0C083E00C000E5252408F8B60304D00033
:02084A00801A12
:0A084C00E5252408F8B60402800434
:04085600D000800C42
:0A085A00D00005217403B5210375D9
:02086400210071
:0C086600C000E5252408F8B6010280045B
:04087200D0008049E9
:05087600D00075240212
:0C087B00C374888524F063F08095F04081
:0C0887001C852482C007C000C001740F53
:0E089300C0E01200F11581D001D000D00705A1
:0308A1002480D7D9
:0E08A400C007C000C0017401C0E075820112DF
:0D08B20000F11581D001D000D007021AD44A
:0C08BF00C000E5252408F8B60202800500
:0508CB00D000021287BD
:0C08D000A82508C3E664809483D0004093
:0408DC0003020D19ED
:0B08E000C000A82508E6D0006003025D
:0208EB000A43BE
:0A08ED00C3E51894F4E519940140E6
:0E08F70060C0078607C2D575F00AEF30E7042F
:04090500B2D5F4046F
:060909008430D502F40465
:0D090F00FFC007C000C001C00775820812BC
:0E091C0000F11581D001D000D007860775F0DC
:0B092A000AEFC2D530E704D2D5F40478
:0809350084E5F030D502F40462
:0D093D00FFC007C000C001C007758207128F
:0E094A0000F11581D001D000D007D007802425
:0E095800C007C000C001740FC0E07582081215
:0E09660000F11581740FC0E07582071200F1D8
:080974001581D001D000D0076D
:0E097C00C0008706C2D575F00AEE30E704B25F
:03098A00D5F4049D
:06098D008430D502F404E1
:0D099300FEC007C000C001C006758206123C
:0E09A00000F11581D001D000D007870675F058
:0B09AE000AEEC2D530E704D2D5F404F5
:0809B90084E5F030D502F404DE
:0D09C100FEC007C000C001C006758205120F
:0E09CE0000F11581D001D000D007C000A807AD
:0E09DC008606D000C2D575F00AEE30E704B2F0
:0309EA00D5F4043D
:0609ED008430D502F40481
:0D09F300FEC007C000C001C00675820412DE
:0E0A000000F11581D001D000D007C000A8077A
:0E0A0E008606D00075F00AEEC2D530E704D29D
:030A1C00D5F4040A
:080A1F0084E5F030D502F40477
:0D0A2700FEC007C000C001C00675820312AA
:0D0A340000F11581D001D000D007D00002E4
:020A41000CFEA9
:0A0A4300C000A82508B601028005D6
:050A4D00D000020BA225
:0A0A5200D000C3E51894F4E51994F0
:0E0A5C0001405C8706C2D575F00AEE30E70453
:040A6A00B2D5F40409
:060A6E008430D502F404FF
:0D0A7400FEC007C000C001C006758206125A
:0E0A810000F11581D001D000D007870675F076
:0B0A8F000AEEC2D530E704D2D5F40413
:080A9A0084E5F030D502F404FC
:0D0AA200FEC007C000C001C006758205122D
:0C0AAF0000F11581D001D000D007802498
:0E0ABB00C007C000C001740FC0E075820612B3
:0E0AC90000F11581740FC0E07582051200F176
:080AD7001581D001D000D00709
:0E0ADF008606C2D575F00AEE30E704B2D5F4F3
:010AED000404
:060AEE008430D502F4047F
:0D0AF400FEC007C000C001C00675820812D8
:0E0B010000F11581D001D000D007860675F0F6
:0B0B0F000AEEC2D530E704D2D5F40492
:080B1A0084E5F030D502F4047B
:0D0B2200FEC007C000C001C00675820712AA
:0E0B2F0000F11581D001D000D007C000A8074A
:0E0B3D008606D000C2D575F00AEE30E704B28D
:030B4B00D5F404DA
:060B4E008430D502F4041E
:0D0B5400FEC007C000C001C006758204127B
:0E0B610000F11581D001D000D007C000A80718
:0E0B6F008606D00075F00AEEC2D530E704D23B
:030B7D00D5F404A8
:080B800084E5F030D502F40415
:0D0B8800FEC007C000C001C0067582031248
:0D0B950000F11581D001D000D007020CFE48
:0A0BA200C000A82508B60202800575
:050BAC00D000020CFE68
:0A0BB100D000C3E51894F4E5199490
:0E0BBB00014068C000A8078606D000C2D575AC
:0A0BC900F00AEE30E704B2D5F404A0
:060BD3008430D502F40499
:0D0BD900FEC007C000C001C00675820412F6
:0E0BE60000F11581D001D000D007C000A80793
:0E0BF4008606D00075F00AEEC2D530E704D2B6
:030C0200D5F40422
:080C050084E5F030D502F4048F
:0D0C0D00FEC007C000C001C00675820312C2
:0C0C1A0000F11581D001D000D00780242B
:0E0C2600C007C000C001740FC0E07582041248
:0E0C340000F11581740FC0E07582031200F10B
:080C42001581D001D000D0079C
:0E0C4A008706C2D575F00AEE30E704B2D5F485
:010C58000497
:060C59008430D502F40412
:0D0C5F00FEC007C000C001C006758206126D
:0E0C6C0000F11581D001D000D007870675F089
:0B0C7A000AEEC2D530E704D2D5F40426
:080C850084E5F030D502F4040F
:0D0C8D00FEC007C000C001C0067582051240
:0E0C9A0000F11581D001D000D0078606C2D52A
:0B0CA80075F00AEE30E704B2D5F4044A
:060CB3008430D502F404B8
:0D0CB900FEC007C000C001C0067582081211
:0E0CC60000F11581D001D000D007860675F030
:0B0CD4000AEEC2D530E704D2D5F404CC
:080CDF0084E5F030D502F404B5
:0D0CE700FEC007C000C001C00675820712E4
:0A0CF40000F11581D001D000D007F7
:0E0CFE00C007C000C0017401C0E07582021280
:0D0D0C0000F11581D001D000D0070211EDDB
:0A0D1900C000A82508B603028005FB
:050D2300D000020EAE3D
:0A0D2800D000C3E51894F4E5199417
:0C0D3200014072C000E5252409F886008D
:0E0D3E008606D000C2D575F00AEE30E704B28A
:030D4C00D5F404D7
:060D4F008430D502F4041B
:0D0D5500FEC007C000C001C0067582081274
:0D0D620000F11581D001D000D007C000E5E0
:0C0D6F00252409F886008606D00075F0E7
:0B0D7B000AEEC2D530E704D2D5F40424
:080D860084E5F030D502F4040D
:0D0D8E00FEC007C000C001C006758207123C
:0C0D9B0000F11581D001D000D0078024A9
:0E0DA700C007C000C001740FC0E075820812C2
:0E0DB50000F11581740FC0E07582071200F185
:080DC3001581D001D000D0071A
:0C0DCB00C000E525240AF886008606D04A
:0E0DD70000C2D575F00AEE30E704B2D5F40480
:060DE5008430D502F40485
:0D0DEB00FEC007C000C001C00675820612E0
:0D0DF80000F11581D001D000D007C000E54A
:0C0E050025240AF886008606D00075F04F
:0B0E11000AEEC2D530E704D2D5F4048D
:080E1C0084E5F030D502F40476
:0D0E2400FEC007C000C001C00675820512A7
:0D0E310000F11581D001D000D007C000E510
:0C0E3E0025240BF886008606D000C2D5E3
:0B0E4A0075F00AEE30E704B2D5F404A6
:060E55008430D502F40414
:0D0E5B00FEC007C000C001C0067582041271
:0D0E680000F11581D001D000D007C000E5D9
:0C0E750025240BF886008606D00075F0DE
:0B0E81000AEEC2D530E704D2D5F4041D
:080E8C0084E5F030D502F40406
:0D0E9400FEC007C000C001C0067582031239
:0D0EA10000F11581D001D000D0070211D55D
:0A0EAE00C000A82508B60402800564
:050EB800D00002104310
:0A0EBD00D000C3E51894F4E5199481
:0C0EC700014072C000E525240AF88600F6
:0E0ED3008606D000C2D575F00AEE30E704B2F4
:030EE100D5F40441
:060EE4008430D502F40485
:0D0EEA00FEC007C000C001C00675820612E0
:0D0EF70000F11581D001D000D007C000E54A
:0C0F040025240AF886008606D00075F04F
:0B0F10000AEEC2D530E704D2D5F4048D
:080F1B0084E5F030D502F40476
:0D0F2300FEC007C000C001C00675820512A7
:0C0F300000F11581D001D000D007802412
:0E0F3C00C007C000C001740FC0E0758206122D
:0E0F4A0000F11581740FC0E07582051200F1F0
:080F58001581D001D000D00783
:0C0F6000C000E5252409F886008606D0B4
:0E0F6C0000C2D575F00AEE30E704B2D5F404E9
:060F7A008430D502F404EE
:0D0F8000FEC007C000C001C0067582081247
:0D0F8D0000F11581D001D000D007C000E5B3
:0C0F9A00252409F886008606D00075F0BA
:0B0FA6000AEEC2D530E704D2D5F404F7
:080FB10084E5F030D502F404E0
:0D0FB900FEC007C000C001C006758207120F
:0D0FC60000F11581D001D000D007C000E57A
:0C0FD30025240BF886008606D000C2D54D
:0B0FDF0075F00AEE30E704B2D5F40410
:060FEA008430D502F4047E
:0D0FF000FEC007C000C001C00675820412DB
:0D0FFD0000F11581D001D000D007C000E543
:0C100A0025240BF886008606D00075F047
:0B1016000AEEC2D530E704D2D5F40486
:0810210084E5F030D502F4046F
:0D102900FEC007C000C001C00675820312A2
:0D10360000F11581D001D000D0070211D5C6
:0A104300C000A82508B605028005CC
:05104D00D0000211D5E6
:0A105200D000C3E51894F4E51994EA
:0C105C00014072C000E525240BF886005E
:0E1068008606D000C2D575F00AEE30E704B25D
:03107600D5F404AA
:061079008430D502F404EE
:0D107F00FEC007C000C001C006758204124B
:0D108C0000F11581D001D000D007C000E5B3
:0C10990025240BF886008606D00075F0B8
:0B10A5000AEEC2D530E704D2D5F404F7
:0810B00084E5F030D502F404E0
:0D10B800FEC007C000C001C0067582031213
:0C10C50000F11581D001D000D00780247C
:0E10D100C007C000C001740FC0E07582041299
:0E10DF0000F11581740FC0E07582031200F15C
:0810ED001581D001D000D007ED
:0C10F500C000E525240AF886008606D01D
:0E1101000075F00AEEC2D530E704D2D5F40432
:08110F0084E5F030D502F40480
:0D111700FEC007C000C001C00675820512B1
:0D11240000F11581D001D000D007C000E51A
:0C11310025240AF886008606D000C2D5EE
:0B113D0075F00AEE30E704B2D5F404B0
:061148008430D502F4041E
:0D114E00FEC007C000C001C0067582061279
:0D115B0000F11581D001D000D007C000E5E3
:0C116800252409F886008606D00075F0EA
:0B1174000AEEC2D530E704D2D5F40427
:08117F0084E5F030D502F40410
:0D118700FEC007C000C001C006758207123F
:0D11940000F11581D001D000D007C000E5AA
:0C11A100252409F886008606D000C2D57F
:0B11AD0075F00AEE30E704B2D5F40440
:0611B8008430D502F404AE
:0D11BE00FEC007C000C001C0067582081207
:0A11CB0000F11581D001D000D0071B
:0E11D500C007C000C0017402C0E075820212A3
:0A11E30000F11581D001D000D00703
:0E11ED00C007C000C0017402C0E0758201128C
:0D11FB0000F11581D001D000D007E6FEB54F
:0A1208001C26E7FEB51D21C000A85A
:0C121200078606D000EEB51E1590000106
:0E121E00C007C000C00112030FD001D000D0E5
:04122C0007021AD4C7
:0C123000C000E5252409F886008606D0E1
:07123C0000EEB51C02800367
:03124300021AD4B8
:0C124600C000E525240AF886008606D0CA
:0712520000EEB51D02800350
:03125900021AD4A2
:0C125C00C000E525240BF886008606D0B3
:0712680000EEB51E02800339
:03126F00021AD48C
:0E127200900002C007C000C00112030FD0019F
:07128000D000D007021AD4D0
:0C128700C000E5252408F8B6030280052D
:05129300D0000213A5CC
:0C129800D000C00775F00AE51EC2D5307A
:0612A400E704D2D5F404BA
:0812AA0084E5F030D502F404E4
:0C12B200FEFA3395E0FBC2D575F00AE5AA
:0812BE001E30E704B2D5F40470
:0612C6008430D502F4049F
:0C12CC00FCA2D595E0FD75F00AE51DC2FE
:0812D800D530E704D2D5F4047F
:0812E00084E5F030D502F404AE
:0C12E800FEC000E5252410F8A606EE3339
:0C12F40095E008F6E5252412F8C2D57537
:0B130000F00AE51D30E704B2D5F4044C
:06130B008430D502F40459
:0D131100F6A2D595E008F6D00075F00AE5CB
:0A131E001CC2D530E704D2D5F40458
:0813280084E5F030D502F40465
:0C133000FE3395E0FFC2D575F00AE51C05
:07133C0030E704B2D5F40410
:061343008430D502F40421
:0E134900F582A2D595E0F583C007C000C00173
:0E1357007403C0E0E4C0E0740FC0E0E4C0E046
:0C136500C002C003C004C0058500F0E514
:0C137100252410F8E6C0E008E6C0E0A863
:0C137D00F08500F0E5252412F8E6C0E041
:0E13890008E6C0E0C006C007120284E5812419
:0E139700F2F581D001D000D007D007021AD4A1
:0C13A500C000E5252408F8B6040280050D
:0513B100D00002194705
:0913B600D000E521600302159F3F
:0A13BF00C374F495187401951950D9
:0413C900030214D82F
:0C13CD00C00775F00AE51EC2D530E70429
:0413D900D2D5F40471
:0813DD0084E5F030D502F404B0
:0C13E500FEFA3395E0FBC2D575F00AE576
:0813F1001E30E704B2D5F4043C
:0613F9008430D502F4046B
:0C13FF00FCA2D595E0FD75F00AE51DC2CA
:08140B00D530E704D2D5F4044A
:0814130084E5F030D502F40479
:0C141B00FEC000E525240EF8A606EE3306
:0C14270095E008F6E525240CF8C2D57508
:0B143300F00AE51D30E704B2D5F40418
:06143E008430D502F40425
:0D144400F6A2D595E008F6D00075F00AE597
:0A1451001CC2D530E704D2D5F40424
:08145B0084E5F030D502F40431
:0C146300FE3395E0FFC2D575F00AE51CD1
:07146F0030E704B2D5F404DC
:061476008430D502F404ED
:0E147C00F582A2D595E0F583C007C000C0013F
:0E148A007404C0E0E4C0E0740FC0E0E4C0E011
:0C149800C002C003C004C0058500F0E5E0
:0C14A40025240EF8E6C0E008E6C0E0A831
:0C14B000F08500F0E525240CF8E6C0E013
:0E14BC0008E6C0E0C006C007120284E58124E5
:0E14CA00F2F581D001D000D007D007021AD46D
:0C14D800C00775F00AE51EC2D530E7041D
:0414E400D2D5F40465
:0814E80084E5F030D502F404A4
:0C14F000FEFA3395E0FBC2D575F00AE56A
:0814FC001E30E704B2D5F40430
:061504008430D502F4045E
:0C150A00FCA2D595E0FD75F00AE51DC2BD
:08151600D530E704D2D5F4043E
:08151E0084E5F030D502F4046D
:0C152600FEC000E525240EF8A606EE33FA
:0C15320095E008F6D000C2D575F00AE57F
:08153E001D30E704B2D5F404EE
:061546008430D502F4041C
:0E154C00FEA2D595E0FFC007C000C0017404E8
:0E155A00C0E0E4C0E0740FC0E0E4C0E0C002F6
:0C156800C003C004C0058500F0E5252488
:0E1574000EF8E6C0E008E6C0E0C006C007744E
:0E1582000FC0E0E4C0E090000F120284E5818B
:0D15900024F2F581D001D000D007D0070271
:02159D001AD45E
:07159F007401B52102800375
:0315A600021773B6
:0A15A900C374F495187401951950ED
:0415B300030216C257
:0C15B700C00775F00AE51EC2D530E7043D
:0415C300D2D5F40485
:0815C70084E5F030D502F404C4
:0C15CF00FEFA3395E0FBC2D575F00AE58A
:0815DB001E30E704B2D5F40450
:0615E3008430D502F4047F
:0C15E900FCA2D595E0FD75F00AE51DC2DE
:0815F500D530E704D2D5F4045F
:0815FD0084E5F030D502F4048E
:0C160500FEC000E525240EF8A606EE331A
:0C16110095E008F6E525240CF8C2D5751C
:0B161D00F00AE51D30E704B2D5F4042C
:061628008430D502F40439
:0D162E00F6A2D595E008F6D00075F00AE5AB
:0A163B001CC2D530E704D2D5F40438
:0816450084E5F030D502F40445
:0C164D00FE3395E0FFC2D575F00AE51CE5
:0716590030E704B2D5F404F0
:061660008430D502F40401
:0E166600F582A2D595E0F583C007C000C00153
:0E1674007404C0E0E4C0E0740FC0E0E4C0E025
:0C168200C002C003C004C0058500F0E5F4
:0C168E0025240EF8E6C0E008E6C0E0A845
:0C169A00F08500F0E525240CF8E6C0E027
:0E16A60008E6C0E0C006C007120284E58124F9
:0E16B400F2F581D001D000D007D007021AD481
:0C16C200C00775F00AE51EC2D530E70431
:0416CE00D2D5F40479
:0816D20084E5F030D502F404B8
:0C16DA00FEFA3395E0FBC2D575F00AE57E
:0816E6001E30E704B2D5F40444
:0616EE008430D502F40473
:0C16F400FCA2D595E0FD75F00AE51CC2D3
:08170000D530E704D2D5F40452
:0817080084E5F030D502F40481
:0C171000FE3395E0FFC2D575F00AE51C21
:07171C0030E704B2D5F4042C
:061723008430D502F4043D
:0E172900F582A2D595E0F583C007C000C0018F
:0E1737007404C0E0E4C0E0740FC0E0E4C0E061
:0E174500C002C003C004C005740FC0E0E4C0C1
:0D175300E0740FC0E0E4C0E0C006C0071263
:0E1760000284E58124F2F581D001D000D0078B
:05176E00D007021AD4AF
:071773007402B5210280039E
:03177A00021AD47C
:0A177D00C374F49518740195195017
:0417870003021896AB
:0C178B00C00775F00AE51EC2D530E70467
:04179700D2D5F404AF
:08179B0084E5F030D502F404EE
:0C17A300FEFA3395E0FBC2D575F00AE5B4
:0817AF001E30E704B2D5F4047A
:0617B7008430D502F404A9
:0C17BD00FCA2D595E0FD75F00AE51DC208
:0817C900D530E704D2D5F40489
:0817D10084E5F030D502F404B8
:0C17D900FEC000E525240EF8A606EE3345
:0C17E50095E008F6E525240CF8C2D57547
:0B17F100F00AE51D30E704B2D5F40457
:0617FC008430D502F40464
:0D180200F6A2D595E008F6D00075F00AE5D5
:0A180F001CC2D530E704D2D5F40462
:0818190084E5F030D502F4046F
:0C182100FE3395E0FFC2D575F00AE51C0F
:07182D0030E704B2D5F4041A
:061834008430D502F4042B
:0E183A00F582A2D595E0F583C007C000C0017D
:0E1848007404C0E0E4C0E0740FC0E0E4C0E04F
:0C185600C002C003C004C0058500F0E51E
:0C18620025240EF8E6C0E008E6C0E0A86F
:0C186E00F08500F0E525240CF8E6C0E051
:0E187A0008E6C0E0C006C007120284E5812423
:0E188800F2F581D001D000D007D007021AD4AB
:0C189600C00775F00AE51DC2D530E7045C
:0418A200D2D5F404A3
:0818A60084E5F030D502F404E2
:0C18AE00FEFA3395E0FBC2D575F00AE5A8
:0818BA001D30E704B2D5F4046F
:0618C2008430D502F4049D
:0C18C800FCA2D595E0FD75F00AE51CC2FD
:0818D400D530E704D2D5F4047D
:0818DC0084E5F030D502F404AC
:0C18E400FE3395E0FFC2D575F00AE51C4C
:0718F00030E704B2D5F40457
:0618F7008430D502F40468
:0E18FD00F582A2D595E0F583C007C000C001BA
:0E190B007404C0E0E4C0E0740FC0E0E4C0E08B
:0E191900740FC0E0E4C0E0740FC0E0E4C0E072
:0D192700C002C003C004C005C006C0071206
:0E1934000284E58124F2F581D001D000D007B5
:05194200D007021AD4D9
:0C194700C000E5252408F8B60502800564
:05195300D000021AD4CF
:0E195800D000C007C000C0017410C0E07427AA
:09196600C0E0851A82851B831282
:0E196F001B20AE82AF8315811581D001D00000
:0E197D00C007C000C001C0067582081200F14C
:0E198B001581D001D000D007C000C00174E863
:0A199900C0E07403C0E0851A8285E7
:0C19A3001B83121B20AE82AF8315811540
:0D19AF0081740AC0E0E4C0E08E828F8312D4
:0E19BC001B51AE82AF8315811581D001D00082
:0E19CA00C007C000C001C0067582071200F100
:0E19D8001581D001D000D007C000C00174649A
:0A19E600C0E0E4C0E0851A82851B12
:0E19F00083121B20AE82AF8315811581740A0D
:0E19FE00C0E0E4C0E08E828F83121B51AE82E7
:0E1A0C00AF8315811581D001D000C007C00046
:0E1A1A00C001C0067582061200F11581D001D0
:0E1A2800D000D007C000C001740AC0E0E4C0C6
:081A3600E0851A82851B831272
:0E1A3E001B20AE82AF8315811581740AC0E0B3
:0E1A4C00E4C0E08E828F83121B51AE82AF8306
:0E1A5A0015811581D001D000C007C000C00169
:0E1A6800C0067582051200F11581D001D00074
:0E1A7600D007C000C001740AC0E0E4C0E085E3
:061A84001A82851B83128B
:0E1A8A001B51AE82AF8315811581D001D000B3
:0E1A9800C007C000C001C0067582041200F134
:0E1AA6001581740FC0E07582031200F11581E6
:0E1AB400740FC0E07582021200F115817405F6
:0E1AC200C0E07582011200F11581D001D00044
:041AD000D007D00764
:0A1AD4007430C39512F51474759573
:0A1ADE0013F515A2B2E433FAA2B327
:0E1AE800E433FBA2A0E433FCA2A1E433FD90A2
:0E1AF6000014C002C003C004C005C007C00039
:0E1B0400C001120170D001D000D007D005D072
:0C1B120004D003D00202043B852581D0E2
:021B1E0025227E
:0A1B2000E58124FEF8E6F918E6F866
:051B2A007A10E4FBFC51
:0E1B2F00E58225E0F582E58333F583EB33FB99
:0E1B3D00EC33FCEB98F5F0EC994006FCABF0B5
:031B4B00438201D1
:031B4E00DADF22B9
:06005200E478FFF6D8FD82
:080030007900E94400601B7A2D
:0500380000901B9A7806
:03003D000075A0AB
:0A00400000E493F2A308B8000205E3
:08004A00A0D9F4DAF275A0FF61
:080058007800E84400600A7919
:030060000075A088
:0600630000E4F309D8FCE3
:080069007800E84400600C7906
:0B00710000900000E4F0A3D8FCD9FAD6
:03002300758125BF
:0A002600121B96E582600302001E23
:0A1B5100E58124FEF88601188600E5
:061B5B00E84960367A0142
:0E1B6100E825E0F8E933400EF9E58298E583C7
:061B6F009940030A80EC1E
:021B7500C3E9C2
:051B770013F9E813F86A
:0E1B7C00C3E58298F5F0E583994005F5838571
:021B8A00F082E7
:091B8C00C3E913F9E813F8DAE7E4
:011B9500222D
:041B96007582002232
:00000001FF
