:040000000200333295
:03000B000201FCF3
:0100130032BA
:03001B0002027965
:0100230032AA
:03002B000201AD22
:07008C007510D075118A7593
:06009300129875133A7586
:07009900149875153AE4F517
:0400A00018F51975C1
:0600A4001A03751B1C7518
:0600AA001C00751D00752D
:0600B0001E00751F007523
:0500B60020207521006F
:0300BB0002002E12
:05002E0012032F80FE0B
:0900BE00C023858123AA827B0086
:0300C700BB080073
:0E00CA00500CC2B6EA2A92B4FAD2B60B80EFFE
:0200D8007A00AC
:0300DA00BA080061
:0C00DD005019C2B6E52324FDF8E633926A
:0C00E900B4E52324FDF8E625E0F6D2B6CD
:0300F5000A80E29C
:0300F800D02322F0
:0A00FB00C023858123AA82C2B57BD1
:0101050001F8
:0C010600C002C003E52324FDF8E6C0E0C1
:0E0112008A821200BE1581D003D002DBE7D234
:04012000B5D0232211
:0E0124007401C0E075820C1200FB1581E4C06E
:0E013200E075820F1200FB158174FFC0E075AE
:0E01400082091200FB15817407C0E075820B66
:0E014E001200FB1581E4C0E075820A1200FB6E
:04015C0015817A018E
:050160007408B5020067
:0E0165004012C002740FC0E08A821200FB1527
:0601730081D0020A80E7C2
:010179002263
:08017A00AA82AB837C007D002A
:09018200C3EC9AED9B500B7E5A70
:09018B00DEFE0CBC00F10D80EE5B
:010194002248
:0E019500AA897B004303028A8975CDFD75CCD3
:0A01A3000175985043A890D2CA22BB
:0201AD00C0E0B0
:0C01AF003098FD85992075CDFD75CC01C0
:0C01BB00C2CFC2CEE590F4F590D0E03247
:0A01C70075891143A802AA10AB11BC
:0E01D100E4FCFDC39AFAE49BFB74019CE49DE0
:0501DF008A168B17AA2F
:0A01E400178A8CAA168A8A758DFC12
:0E01EE00758B18D2AFD2A9D28CD2ABD28E2292
:0C01FC00C0E0C0D075D0087401B51D37FC
:0A020800AA14AB15E4FCFDC39AFA3A
:0C021200E49BFB74019CFCE49DFD8A163B
:07021E008B17AA178A8CAAB6
:0A022500167B008A8A7401B51E04DE
:04022F00C2A78007DB
:070233007402B51E02C2A611
:05023A00751D00803578
:0A023F00AA12AB13E4FCFDC39AFA07
:0C024900E49BFB74019CFCE49DFD8A1604
:070255008B17AA178A8CAA7F
:0A025C00167B008A8A7401B51E04A7
:04026600D2A7800794
:07026A007402B51E02D2A6CA
:03027100751D01F7
:05027400D0D0D0E03203
:0E027900C0E0C0D075D000758DD8758BF00533
:0602870018E4B5180205A1
:01028D001957
:0A028E007464B51806E4B519028087
:010298000263
:020299008023C0
:06029B00E4F518F5190559
:0702A1001C743CB51C17752D
:0702A8001C00051B743CB5AE
:0602AF001B0D751B00058C
:0702B5001A7418B51A037555
:0202BC001A0026
:0502BE00D0D0D0E032B9
:0C02C300AA82AB838A1EBA0116BB00138E
:0A02CF007512347513089007D01261
:0602D900017A7512E875C0
:0302DF00130322E4
:0A02E200BA0215BB00127512E87590
:0902EC0013039007D012017A758A
:0502F50012347513082E
:0102FA0022E1
:0D02FB009000011202C39007D012017A900A
:0503080000020202C327
:06030D007590FF7522004F
:0C031300C3E5226480948A500FE590F44A
:0C031F00F59090012C12017A052280E874
:04032B007590FF22A8
:0A032F00C023E581F523240CF581BD
:0C0339007A007B007C007D00A823087681
:0C03450000E5232402F87600E804F977B4
:0E03510000740228FFC000A8077600D000C08C
:0C035F0001E523240AF9740328F7D001FB
:0C036B00C000E523240AF886007600D0CC
:0C03770000C001E523240BF9740428F7F2
:0C038300D001C000E523240BF8860076B2
:0C038F0000D000C001E523240CF9740527
:0C039B0028F7D001C000E523240CF886F0
:0C03A700007600E5232408F87601D00061
:0C03B300D2B2D2B3D2A0D2A17512DC7578
:0603BF00130575145475CE
:0C03C500156FC002C003C004C005C007D3
:0B03D100C000C0011201241201C7127D
:0603DC0001951202FB1264
:0E03E200030DD001D000D007D005D004D00309
:0203F000D00239
:0C03F200C000E5232409F8B631028004A5
:0403FE00D00080317A
:0E040200D000900001C002C003C004C005C0BD
:0E04100007C000C0011202C3D001D000D00707
:0C041E00D005D004D003D002C000E523BC
:09042A002409F87620D000803F7F
:0C043300C000E5232409F8B63202800462
:04043F00D000802F3A
:0E044300D000900002C002C003C004C005C07B
:0E04510007C000C0011202C3D001D000D007C6
:0C045F00D005D004D003D002C000E5237B
:07046B002409F87620D000FF
:0604720030B2030205B5E3
:05047800BA010280033F
:03047D000205B5C0
:0E04800090000AC003C004C005C007C000C041
:0E048E000112017AD001D000D007D005D004B1
:08049C00D00330B2030205B5E4
:0C04A400C000E5232408F8B60102800423
:0404B000D0008023D5
:0E04B400D000900001C003C004C005C007C006
:0E04C20000C0011202C3D001D000D007D00547
:0704D000D004D0030205B5C2
:0C04D700C000E5232408F8B602028004EF
:0404E300D000806E57
:0A04E700A82308B60004D000800E20
:0804F100A82308B603028004F1
:0404F900D000802E81
:0204FD00D0002D
:0C04FF00C005C001A92309E728FAD001BC
:0E050B00C000A802068605D000BD18028005BB
:05051900D0050205B54C
:0D051E00D005C000A8027600D0000205B58F
:0C052B00C005C001A92309E728FAD0018F
:0E053700C000A802068605D000BD3C0280046C
:04054500D005806CF1
:0C054900D005C000A8027600D000806041
:0C055500C000E5232408F8B60304D00021
:020561008052C6
:0A056300E5232408F8B60402800422
:04056D00D0008044F6
:08057100D000E4B51F02800E6A
:070579007401B51F02801799
:070580007402B51F3080205A
:0A058700051AC3E51A648094984039
:0605910023751A00801E14
:0A059700051BC3E51B648094BC4003
:0605A10013751B00800E23
:0A05A700051CC3E51C648094BC40F1
:0405B10003751C00B2
:0605B50030B3030206E56D
:0505BB00BB01028003FA
:0305C0000206E54B
:0E05C30090000AC004C005C007C000C00112AD
:0E05D100017AD001D000D007D005D00430B39D
:0405DF00030206E528
:0C05E300C000E5232408F8B601028004E3
:0405EF00D000801F99
:0E05F300D000900002C004C005C007C000C0C8
:0E060100011202C3D001D000D007D005D004F2
:03060F000206E5FB
:0C061200C000E5232408F8B602028004B2
:04061E00D000807513
:0A062200A82308B60004D000800EE3
:08062C00A82308B603028004B4
:04063400D000803240
:02063800D000F0
:0C063A00C005C001A92309E728FAD0017F
:0E064600C000A802168605D000C374808DF097
:0C06540063F08095F0D00550030206E52D
:0A066000C000A8027617D000807BCE
:0C066A00C005C001A92309E728FAD0014F
:0E067600C000A802168605D000C374808DF067
:0E06840063F08095F0D0054058C000A80276C3
:050692003BD000804E8A
:0C069700C000E5232408F8B60304D000DE
:0206A300804095
:0A06A500E5232408F8B604028004DF
:0406AF00D0008032C5
:0906B300D000E51F700C151AE5DA
:0906BC001A30E725751A17802099
:0806C5007401B51F0C151BE5C3
:0906CD001B30E714751B3B800F84
:0806D6007402B51F0A151CE5B2
:0706DE001C30E703751C3B13
:0606E50030A003020776BD
:0506EB00BC01028003C8
:0306F00002077688
:0E06F30090000AC005C007C000C00112017AC5
:0E070100D001D000D007D00520A06AC000E5CE
:09070F00232408F8B6010280045D
:04071800D000800B82
:0B071C00E5232408F87602D000804F8F
:0C072700C000E5232408F8B6020280049C
:04073300D000800B67
:0B073700E5232408F87603D00080348E
:0C074200C000E5232408F8B60302800480
:04074E00D000800B4C
:0B075200E5232408F87604D00080198D
:0C075D00C000E5232408F8B60402800464
:04076900D000800933
:09076D00E5232408F87601D00010
:0E07760020A175BD017290000AC007C000C02E
:0E0784000112017AD001D000D00720A15DC083
:0C07920000E5232408F8B60104D0008024
:01079E004F0B
:0A079F00E5232408F8B602028004E6
:0407A900D0008019E3
:0A07AD00A8230806A82308B60602D8
:0207B7008004BC
:0407B900D0008031BB
:0907BD00A823087600D000802872
:0C07C600C000E5232408F8B60304D000AE
:0207D200801A8B
:0A07D400E5232408F8B604028004AF
:0407DE00D000800CBB
:0A07E200D000051F7403B51F037556
:0207EC001F00EC
:0C07EE00C000E5232408F8B601028004D6
:0407FA00D000804962
:0507FE00D0007522008F
:0C080300C374888522F063F08095F040FB
:0C080F001C852282C007C000C001740FCD
:0E081B00C0E01200FB1581D001D000D007050F
:030829002280D753
:0E082C00C007C000C0017401C0E07582011257
:0D083A0000FB1581D001D000D0070213ACE7
:0C084700C000E5232408F8B6020280057A
:05085300D00002120FAD
:0C085800A82308C3E664809483D000400D
:0408640003020CA1DE
:0B086800C000A82308E6D000600302D7
:0208730009CBAF
:0A087500C3E5189432E51994004021
:0E087F0060C0078607C2D575F00AEF30E704A7
:04088D00B2D5F404E8
:060891008430D502F404DE
:0D089700FFC007C000C001C0077582081235
:0E08A40000FB1581D001D000D007860775F04B
:0B08B2000AEFC2D530E704D2D5F404F1
:0808BD0084E5F030D502F404DB
:0D08C500FFC007C000C001C0077582071208
:0E08D20000FB1581D001D000D007D007802494
:0E08E000C007C000C001740FC0E0758208128E
:0E08EE0000FB1581740FC0E07582071200FB3D
:0808FC001581D001D000D007E6
:0E090400C0008706C2D575F00AEE30E704B2D7
:03091200D5F40415
:060915008430D502F40459
:0D091B00FEC007C000C001C00675820612B4
:0E09280000FB1581D001D000D007870675F0C6
:0B0936000AEEC2D530E704D2D5F4046D
:0809410084E5F030D502F40456
:0D094900FEC007C000C001C0067582051287
:0E09560000FB1581D001D000D007C000A8071B
:0E0964008606D000C2D575F00AEE30E704B268
:03097200D5F404B5
:060975008430D502F404F9
:0D097B00FEC007C000C001C0067582041256
:0E09880000FB1581D001D000D007C000A807E9
:0E0996008606D00075F00AEEC2D530E704D216
:0309A400D5F40483
:0809A70084E5F030D502F404F0
:0D09AF00FEC007C000C001C0067582031223
:0D09BC0000FB1581D001D000D007D0000253
:0209C9000C869A
:0A09CB00C000A82308B60102800551
:0509D500D000020B2A16
:0A09DA00D000C3E5189432E519942B
:0E09E40000405C8706C2D575F00AEE30E704CD
:0409F200B2D5F40482
:0609F6008430D502F40478
:0D09FC00FEC007C000C001C00675820612D3
:0E0A090000FB1581D001D000D007870675F0E4
:0B0A17000AEEC2D530E704D2D5F4048B
:080A220084E5F030D502F40474
:0D0A2A00FEC007C000C001C00675820512A5
:0C0A370000FB1581D001D000D007802406
:0E0A4300C007C000C001740FC0E0758206122B
:0E0A510000FB1581740FC0E07582051200FBDA
:080A5F001581D001D000D00781
:0E0A67008606C2D575F00AEE30E704B2D5F46B
:010A7500047C
:060A76008430D502F404F7
:0D0A7C00FEC007C000C001C0067582081250
:0E0A890000FB1581D001D000D007860675F065
:0B0A97000AEEC2D530E704D2D5F4040B
:080AA20084E5F030D502F404F4
:0D0AAA00FEC007C000C001C0067582071223
:0E0AB70000FB1581D001D000D007C000A807B9
:0E0AC5008606D000C2D575F00AEE30E704B206
:030AD300D5F40453
:060AD6008430D502F40497
:0D0ADC00FEC007C000C001C00675820412F4
:0E0AE90000FB1581D001D000D007C000A80787
:0E0AF7008606D00075F00AEEC2D530E704D2B4
:030B0500D5F40420
:080B080084E5F030D502F4048D
:0D0B1000FEC007C000C001C00675820312C0
:0D0B1D0000FB1581D001D000D007020C862E
:0A0B2A00C000A82308B602028005EF
:050B3400D000020C8658
:0A0B3900D000C3E5189432E51994CA
:0E0B4300004068C000A8078606D000C2D57525
:0A0B5100F00AEE30E704B2D5F40418
:060B5B008430D502F40411
:0D0B6100FEC007C000C001C006758204126E
:0E0B6E0000FB1581D001D000D007C000A80701
:0E0B7C008606D00075F00AEEC2D530E704D22E
:030B8A00D5F4049B
:080B8D0084E5F030D502F40408
:0D0B9500FEC007C000C001C006758203123B
:0C0BA20000FB1581D001D000D00780249A
:0E0BAE00C007C000C001740FC0E075820412C1
:0E0BBC0000FB1581740FC0E07582031200FB70
:080BCA001581D001D000D00715
:0E0BD2008706C2D575F00AEE30E704B2D5F4FE
:010BE0000410
:060BE1008430D502F4048B
:0D0BE700FEC007C000C001C00675820612E6
:0E0BF40000FB1581D001D000D007870675F0F8
:0B0C02000AEEC2D530E704D2D5F4049E
:080C0D0084E5F030D502F40487
:0D0C1500FEC007C000C001C00675820512B8
:0E0C220000FB1581D001D000D0078606C2D598
:0B0C300075F00AEE30E704B2D5F404C2
:060C3B008430D502F40430
:0D0C4100FEC007C000C001C0067582081289
:0E0C4E0000FB1581D001D000D007860675F09E
:0B0C5C000AEEC2D530E704D2D5F40444
:080C670084E5F030D502F4042D
:0D0C6F00FEC007C000C001C006758207125C
:0A0C7C0000FB1581D001D000D00765
:0E0C8600C007C000C0017401C0E075820212F8
:0D0C940000FB1581D001D000D007021175C2
:0A0CA100C000A82308B60302800576
:050CAB00D000020E362E
:0A0CB000D000C3E5189432E5199452
:0C0CBA00004072C000E523240AF8860008
:0E0CC6008606D000C2D575F00AEE30E704B203
:030CD400D5F40450
:060CD7008430D502F40494
:0D0CDD00FEC007C000C001C00675820812ED
:0D0CEA0000FB1581D001D000D007C000E54F
:0C0CF70023240AF886008606D00075F061
:0B0D03000AEEC2D530E704D2D5F4049C
:080D0E0084E5F030D502F40485
:0D0D1600FEC007C000C001C00675820712B4
:0C0D230000FB1581D001D000D007802417
:0E0D2F00C007C000C001740FC0E0758208123A
:0E0D3D0000FB1581740FC0E07582071200FBE9
:080D4B001581D001D000D00792
:0C0D5300C000E523240BF886008606D0C3
:0E0D5F0000C2D575F00AEE30E704B2D5F404F8
:060D6D008430D502F404FD
:0D0D7300FEC007C000C001C0067582061258
:0D0D800000FB1581D001D000D007C000E5B8
:0C0D8D0023240BF886008606D00075F0C9
:0B0D99000AEEC2D530E704D2D5F40406
:080DA40084E5F030D502F404EF
:0D0DAC00FEC007C000C001C0067582051220
:0D0DB90000FB1581D001D000D007C000E57F
:0C0DC60023240CF886008606D000C2D55D
:0B0DD20075F00AEE30E704B2D5F4041F
:060DDD008430D502F4048D
:0D0DE300FEC007C000C001C00675820412EA
:0D0DF00000FB1581D001D000D007C000E548
:0C0DFD0023240CF886008606D00075F058
:0B0E09000AEEC2D530E704D2D5F40495
:080E140084E5F030D502F4047E
:0D0E1C00FEC007C000C001C00675820312B1
:0D0E290000FB1581D001D000D00702115D43
:0A0E3600C000A82308B604028005DE
:050E4000D000020FCB01
:0A0E4500D000C3E5189432E51994BB
:0C0E4F00004072C000E523240BF8860070
:0E0E5B008606D000C2D575F00AEE30E704B26C
:030E6900D5F404B9
:060E6C008430D502F404FD
:0D0E7200FEC007C000C001C0067582061258
:0D0E7F0000FB1581D001D000D007C000E5B8
:0C0E8C0023240BF886008606D00075F0C9
:0B0E98000AEEC2D530E704D2D5F40406
:080EA30084E5F030D502F404EF
:0D0EAB00FEC007C000C001C0067582051220
:0C0EB80000FB1581D001D000D007802481
:0E0EC400C007C000C001740FC0E075820612A6
:0E0ED20000FB1581740FC0E07582051200FB55
:080EE0001581D001D000D007FC
:0C0EE800C000E523240AF886008606D02E
:0E0EF40000C2D575F00AEE30E704B2D5F40462
:060F02008430D502F40466
:0D0F0800FEC007C000C001C00675820812BF
:0D0F150000FB1581D001D000D007C000E521
:0C0F220023240AF886008606D00075F033
:0B0F2E000AEEC2D530E704D2D5F4046F
:080F390084E5F030D502F40458
:0D0F4100FEC007C000C001C0067582071287
:0D0F4E0000FB1581D001D000D007C000E5E8
:0C0F5B0023240CF886008606D000C2D5C6
:0B0F670075F00AEE30E704B2D5F40488
:060F72008430D502F404F6
:0D0F7800FEC007C000C001C0067582041253
:0D0F850000FB1581D001D000D007C000E5B1
:0C0F920023240CF886008606D00075F0C1
:0B0F9E000AEEC2D530E704D2D5F404FF
:080FA90084E5F030D502F404E8
:0D0FB100FEC007C000C001C006758203121B
:0D0FBE0000FB1581D001D000D00702115DAD
:0A0FCB00C000A82308B60502800547
:050FD500D00002115DD7
:0A0FDA00D000C3E5189432E5199425
:0C0FE400004072C000E523240CF88600D9
:0E0FF0008606D000C2D575F00AEE30E704B2D6
:030FFE00D5F40423
:061001008430D502F40466
:0D100700FEC007C000C001C00675820412C3
:0D10140000FB1581D001D000D007C000E521
:0C10210023240CF886008606D00075F031
:0B102D000AEEC2D530E704D2D5F4046F
:0810380084E5F030D502F40458
:0D104000FEC007C000C001C006758203128B
:0C104D0000FB1581D001D000D0078024EA
:0E105900C007C000C001740FC0E07582041211
:0E10670000FB1581740FC0E07582031200FBC0
:081075001581D001D000D00765
:0C107D00C000E523240BF886008606D096
:0E1089000075F00AEEC2D530E704D2D5F404AB
:0810970084E5F030D502F404F9
:0D109F00FEC007C000C001C006758205122A
:0D10AC0000FB1581D001D000D007C000E589
:0C10B90023240BF886008606D000C2D568
:0B10C50075F00AEE30E704B2D5F40429
:0610D0008430D502F40497
:0D10D600FEC007C000C001C00675820612F2
:0D10E30000FB1581D001D000D007C000E552
:0C10F00023240AF886008606D00075F064
:0B10FC000AEEC2D530E704D2D5F404A0
:0811070084E5F030D502F40488
:0D110F00FEC007C000C001C00675820712B7
:0D111C0000FB1581D001D000D007C000E518
:0C11290023240AF886008606D000C2D5F8
:0B11350075F00AEE30E704B2D5F404B8
:061140008430D502F40426
:0D114600FEC007C000C001C006758208127F
:0A11530000FB1581D001D000D00789
:0E115D00C007C000C0017402C0E0758202121B
:0A116B0000FB1581D001D000D00771
:0E117500C007C000C0017402C0E07582011204
:0D11830000FB1581D001D000D007E6FEB5BD
:0A1190001A26E7FEB51B21C000A8D7
:0C119A00078606D000EEB51C1590000181
:0E11A600C007C000C0011202C3D001D000D0AB
:0411B400070213AC6F
:0C11B800C000E523240AF886008606D05B
:0711C40000EEB51A028003E2
:0311CB000213AC60
:0C11CE00C000E523240BF886008606D044
:0711DA0000EEB51B028003CB
:0311E1000213AC4A
:0C11E400C000E523240CF886008606D02D
:0711F00000EEB51C028003B4
:0311F7000213AC34
:0E11FA00900002C007C000C0011202C3D00165
:07120800D000D0070213AC77
:0C120F00C000E5232408F8E4B603010445
:0C121B00FED000EE7013C000E523240894
:06122700F8B60402800588
:05122D00D0000213AC2B
:02123200D000EA
:0C123400C007C2D575F00AE51A30E704C7
:04124000B2D5F4042B
:061244008430D502F40421
:0E124A00FFC006C007C000C001C007758208C3
:0E1258001200FB1581D001D000D007D0067522
:0C126600F00AE51AC2D530E704D2D5F436
:011272000477
:0812730084E5F030D502F4041B
:0E127B00FFC006C007C000C001C00775820793
:0E1289001200FB1581D001D000D007D006C2A4
:0C129700D575F00AE51B30E704B2D5F471
:0112A3000446
:0612A4008430D502F404C1
:0E12AA00FFC006C007C000C001C00775820665
:0E12B8001200FB1581D001D000D007D00675C2
:0C12C600F00AE51BC2D530E704D2D5F4D5
:0112D2000417
:0812D30084E5F030D502F404BB
:0E12DB00FFC006C007C000C001C00775820535
:0E12E9001200FB1581D001D000D007D006C244
:0C12F700D575F00AE51C30E704B2D5F410
:0113030004E5
:061304008430D502F40460
:0E130A00FFC006C007C000C001C00775820406
:0E1318001200FB1581D001D000D007D0067561
:0C132600F00AE51CC2D530E704D2D5F473
:0113320004B6
:0813330084E5F030D502F4045A
:0E133B00FFC006C007C000C001C007758203D6
:0E1349001200FB1581D001D000D007D006D0D5
:0E13570007EE601AC007C000C001740FC0E0AE
:0E1365007582021200FB1581D001D000D00766
:021373008018E0
:0E137500C007C000C001747EC0E07582021285
:0A13830000FB1581D001D000D00757
:0C138D00C007C000C0018500F0E523246B
:0E13990008F8E6C0E07582011200FB1581D055
:0513A70001D000D00799
:0A13AC007430C39512F514747595A2
:0A13B60013F515A2B2E433FAA2B356
:0E13C000E433FBA2A0E433FCA2A1E433FD90D1
:0E13CE000014C002C003C004C005C007C00068
:0E13DC00C00112017AD001D000D007D005D098
:0C13EA0004D003D0020203F2852381D05E
:0213F6002322B0
:06006200E478FFF6D8FD72
:080040007900E94400601B7A1D
:05004800009013FC789C
:03004D000075A09B
:0A00500000E493F2A308B8000205D3
:08005A00A0D9F4DAF275A0FF51
:080068007800E84400600A7909
:030070000075A078
:0600730000E4F309D8FCD3
:080079007800E84400600C79F6
:0B00810000900000E4F0A3D8FCD9FAC6
:03003300758123B1
:0A0036001213F8E582600302002EA9
:0413F80075820022D8
:00000001FF
