:03000000020DE20C
:0C0DE200787FE4F6D8FD75811E020E2912
:060FB20000000000000039
:100FA100021DB1E0021B27100215271002190000D3
:100EF400E4FEEEC3940874809480500FC2B6EF33BE
:100F040092B4EF25E0FFD2B60E80E7E4FEEEC39480
:100F14000874809480500FC2B6ED3392B4ED25E08E
:060F2400FDD2B60E80E7CD
:010F2A0022A4
:0B0F5A00E50E75F00A120DC0FD7F06C9
:040F6500AC05AB0725
:100F6900C2B57A01EAD3940174809480500AAF0320
:0A0F7900AD04120EF40A80ECD2B5AC
:010F8300224B
:100EBA007D017F0C120F65E4FD7F0F120F657DFF28
:100ECA007F09120F657D077F0B120F65E4FD7F0A0C
:100EDA00120F657901E9D3940874809480500AAF9F
:090EEA00017D0F120F650980EC77
:010EF30022DC
:030F2B007F0AFE3C
:100F2E00E4FDFCC3ED9FEC9E5021E4FBEBF5823318
:100F3E0095E0F583C3E5829432E583648094805016
:0B0F4E00030B80E80DBD00010C80D8F3
:010F59002275
:100F8400C2AF43A802438901C3E4951EF518E49552
:0D0F94001DF517F58C85188AD28CD2AF227E
:03000B00020E6E74
:100E6E00C0E0C0D0051AE51A700205196464451970
:100E7E007004F519F51A30B018C28CC3E49516F546
:100E8E0018E49515F517F58C85188AD28CC2B080AA
:100E9E0016C28CC3E4951CF518E4951BF517F58C5A
:0C0EAE0085188AD28CD2B0D0D0D0E032AF
:10080000E4F508F509F50AF50BF50C780D7C00FD0B
:100810007BFF7A0F79B2FE7F06120D9A751301D213
:10082000B2D2B3D2A0D2A1120EBA120F8420B26CEF
:10083000AF08EF3395E0FEEF64014E705F120F2BAF
:1008400020B259AF13EF3395E0FEEF64014E70080C
:10085000751B08751C988044EF64024E703EE50CD1
:1008600024FD60042403701B740D250CF806E6FFBC
:100870003395E0FEEF64184E7022740D250CF8E4F9
:10088000F68019740D250CF806E6FF3395E0FEEFAF
:10089000643C4E7007740D250CF8E4F620B376AF77
:1008A00009EF3395E0FEEF64014E7069120F2B20C3
:1008B000B363AF13EF3395E0FEEF64014E7008753C
:1008C0001B05751CDC804EEF64024E7048E50C245D
:1008D000FD600424037020740D250CF816E6FF3328
:1008E00095E0FED3EF9400EE648094805027740D61
:1008F000250CF87617801E740D250CF816E6FF33CC
:1009000095E0FED3EF9400EE648094805007740D60
:10091000250CF8763B20A03CAF0AEF3395E0FEEFC4
:1009200064014E702F7F0AFE120F2E20A026AF13F7
:10093000EF3395E0FEEF64014E70057513028014ED
:10094000EF64024E70057513038009EF64034E7067
:100950000375130120A13AAF0BEF3395E0FEEF646E
:10096000014E702D7F0AFE120F2E20A124AF13EF2F
:100970003395E0FEEF64014E6017EF64024E701194
:10098000050CAF0CEF3395E0FEEF64064E7002F5F8
:100990000CAF13EF3395E0FEEF64014E7023751436
:1009A00002AF14EF3395E0FED3EF9408EE64809429
:1009B0008050097D0F120F65051480E57D01020C42
:1009C0007CAF13EF3395E0FEEF64024E6003020C40
:1009D0004FAF0CEF3395E0FEC3EF9403EE648094C9
:1009E000804003020B10EF4E7044C3E51A9432E5C9
:1009F000199400401AE50D75F00A120DC0FD7F082C
:100A0000120F65E50D75F00A120DC0ADF080097D7D
:100A10000F7F08120F657D0F7F07120F65120F5AA7
:100A2000E50E75F00A120DC0ADF07F05804FAF0CDA
:100A3000EF3395E0FEEF64014E7061C3E51A943226
:100A4000E5199400400F120F5AE50E75F00A120DC9
:100A5000C0ADF080097D0F7F06120F657D0F7F0509
:100A6000120F65E50D75F00A120DC0FD7F08120F1B
:100A700065E50D75F00A120DC0ADF07F07120F6528
:100A8000E50F75F00A120DC0FD7F04120F65E50F2A
:100A900075F00A120DC0ADF07F03806CAF0CEF3320
:100AA00095E0FEEF64024E7062C3E51A9432E519D8
:100AB0009400401AE50F75F00A120DC0FD7F041274
:100AC0000F65E50F75F00A120DC0ADF080097D0FBE
:100AD0007F04120F657D0F7F03120F65120F5AE519
:100AE0000E75F00A120DC0ADF07F05120F65E50D11
:100AF00075F00A120DC0FD7F08120F65E50D75F047
:100B00000A120DC0ADF07F07120F657D01020C4681
:100B1000AF0CEF3395E0FEEF64034E7046C3E51A69
:100B20009432E5199400401AE51075F00A120DC0D0
:100B3000FD7F08120F65E51075F00A120DC0ADF0CB
:100B400080097D0F7F08120F657D0F7F07120F65EB
:100B5000E511120F5CE51175F00A120DC0ADF07FC2
:100B6000058051AF0CEF3395E0FEEF64044E7063E7
:100B7000C3E51A9432E51994004011E511120F5C97
:100B8000E51175F00A120DC0ADF080097D0F7F06EA
:100B9000120F657D0F7F05120F65E51075F00A12C3
:100BA0000DC0FD7F08120F65E51075F00A120DC02B
:100BB000ADF07F07120F65E51275F00A120DC0FD4A
:100BC0007F04120F65E51275F00A120DC0ADF07FBB
:100BD00003806EAF0CEF3395E0FEEF64054E70645A
:100BE000C3E51A9432E5199400401AE51275F00A2B
:100BF000120DC0FD7F04120F65E51275F00A120D8B
:100C0000C0ADF080097D0F7F04120F657D0F7F035B
:100C1000120F65E51175F00A120DC0ADF07F0512D7
:100C20000F65E511120F5CE51075F00A120DC0ADED
:100C3000F07F07120F65E51075F00A120DC0FD7FF9
:100C400008120F657D027F02120F657D02802DAFB5
:100C500013EF3395E0FEEF64034E7025751402AF79
:100C600014EF3395E0FED3EF9408EE648094805047
:100C7000097D0F120F65051480E57D037F01120FBA
:100C800065C37420951CF516744E951BF515A2B21C
:100C9000E433F508A2B3E433F509A2A0E433F50A7E
:100CA000A2A1E433F50B7F147E00120F2EE5092577
:100CB000E02508FFE50A25E025E02FFFE50B75F0AC
:0A0CC00008A42F24F0F59002082D7F
:100DEE00020800E493A3F8E493A34003F68001F213
:100DFE0008DFF48029E493A3F85407240CC8C33306
:100E0E00C4540F4420C8834004F456800146F6DFD4
:100E1E00E4800B0102040810204080900FA1E47EB4
:100E2E00019360BCA3FF543F30E509541FFEE493C9
:100E3E00A360010ECF54C025E060A840B8E493A390
:100E4E00FAE493A3F8E493A3C8C582C8CAC583CABB
:100E5E00F0A3C8C582C8CAC583CADFE9DEE780BE73
:010FB100003F
:100CCA00E709F608DFFA8046E709F208DFFA803E0C
:100CDA0088828C83E709F0A3DFFA8032E309F608F9
:100CEA00DFFA8078E309F208DFFA807088828C8361
:100CFA00E309F0A3DFFA806489828A83E0A3F60815
:100D0A00DFFA805889828A83E0A3F208DFFA804CEE
:100D1A0080D280FA80C680D4806980F280338010C5
:100D2A0080A680EA809A80A880DA80E280CA80332E
:100D3A0089828A83ECFAE493A3C8C582C8CCC583A6
:100D4A00CCF0A3C8C582C8CCC583CCDFE9DEE78076
:100D5A000D89828A83E493A3F608DFF9ECFAA9F0F5
:100D6A00EDFB2289828A83ECFAE0A3C8C582C8CC4B
:100D7A00C583CCF0A3C8C582C8CCC583CCDFEADE64
:100D8A00E880DB89828A83E493A3F208DFF980CCC6
:100D9A0088F0EF60010E4E60C388F0ED2402B404BF
:100DAA000050B9F582EB2402B4040050AF23234566
:060DBA008223900D1A7364
:100DC000C2D530F707B2D563F0FF05F030E70CB2BB
:100DD000D5F4048463F0FF05F080018430D502F47B
:020DE0000422EB
:00000001FF
