:03000000020800F3
:0C080000787FE4F6D8FD75810F020847F0
:0C092500020EB1E0020C2710020827109F
:10090800C2AF43A802438901C3E4950FF50BE495F0
:0D0918000EF50AF58C850B8AD28CD2AF2229
:03000B000208CE1A
:1008CE00C0E0C0D030B018C28CC3E49509F50BE47B
:1008DE009508F50AF58C850B8AD28CC2B08016C2AB
:1008EE008CC3E4950DF50BE4950CF50AF58C850B90
:0A08FE008AD28CD2B0D0D0D0E03204
:10088C0012090820B209750C08750D987590012095
:10089C00B309750C05750DDC75900220A009750C5B
:1008AC0004750DB075900320A109750C03750D84AA
:1008BC00759004C37420950DF509744E950CF508CC
:0208CC0080C1E9
:10080C0002088CE493A3F8E493A34003F68001F26E
:10081C0008DFF48029E493A3F85407240CC8C333ED
:10082C00C4540F4420C8834004F456800146F6DFBC
:10083C00E4800B0102040810204080900925E47E1E
:10084C00019360BCA3FF543F30E509541FFEE493B1
:10085C00A360010ECF54C025E060A840B8E493A378
:10086C00FAE493A3F8E493A3C8C582C8CAC583CAA3
:10087C00F0A3C8C582C8CAC583CADFE9DEE780BE5B
:0109310000C5
:00000001FF
