:03000000020E2FBE
:0C0E2F00787FE4F6D8FD75812A020E766B
:0610860000000000000064
:10105000021D8AD002163A9802103A980214000033
:0F106000011A00011C00011900011B00011800FA
:100F9900E4FEEEC3940874809480500FC2B6EF3318
:100FA90092B4EF25E0FFD2B60E80E7E4FEEEC394DB
:100FB9000874809480500FC2B6ED3392B4ED25E0E9
:060FC900FDD2B60E80E728
:010FCF0022FF
:0B0FFF00E52575F00A120E0DFD7F06BF
:04100A00AC05AB077F
:10100E00C2B57A01EAD3940174809480500AAF037A
:0A101E00AD04120F990A80ECD2B560
:0110280022A5
:100F5F007D017F0C12100AE4FD7F0F12100A7DFF36
:100F6F007F0912100A7D077F0B12100AE4FD7F0A1A
:100F7F0012100A7901E9D3940874809480500AAF53
:090F8F00017D0F12100A0980EC2B
:010F98002236
:030FD0007F0AFE97
:100FD300E4FDFCC3ED9FEC9E5021E4FBEBF5823373
:100FE30095E0F583C3E5829432E583648094805071
:0B0FF300030B80E80DBD00010C80D84E
:010FFE0022D0
:1010290075891143A802C3E4951EF513E4951DF5CE
:1010390012F58C85138A758DFC758B18D2AFD2A9E0
:07104900D28CD2ABD28E2243
:03000B00020EBB27
:100EBB00C0E0C0D075D008E51B6401702CC3951140
:100ECB00F513E49510F512F58C85138AAF187E0097
:100EDB00EF64017004C2A78008EF64024E7002C277
:100EEB00A6751B0075900F802BC3E49517F513E4C3
:100EFB009516F512F58C85138AAF187E00EF6401F9
:100F0B007004D2A78008EF64024E7002D2A6751B44
:090F1B00017590F0D0D0D0E03255
:03001B00020F24AD
:100F2400C0E0758DD8758BF00515E51570020514B4
:100F3400646445147022F514F5150519E519643C2B
:100F44007016F519051CE51C643C700CF51C051A9B
:0B0F5400E51A64187002F51AD0E032B4
:101070008F187516087517347FE87E03120FD37525
:0610800016057517DC22C5
:10080000E4F51FF520F521F522F52378247C00FD81
:100810007BFF7A107986FE7F06120DE7752A01D2DA
:10082000B2D2B3D2A0D2A175900F7516057517DCA0
:1008300075106F751154120F5F12102920B273AF2B
:100840001FEF3395E0FEEF64014E7066120FD0206B
:10085000B260AF2AEF3395E0FEEF64014E70087F7F
:1008600001FE121070804BAF2AEF3395E0FEEF646B
:10087000024E703EE52324FD60042403701B7424A3
:100880002523F806E6FF3395E0FEEF64184E70224C
:1008900074242523F8E4F6801974242523F806E649
:1008A000FF3395E0FEEF643C4E700774242523F877
:1008B000E4F630B303020935AF20EF3395E0FEEFE5
:1008C00064014E7070120FD020B36AAF2AEF3395D7
:1008D000E0FEEF64014E70087F02FE12107080553A
:1008E000AF2AEF3395E0FEEF64024E7048E5232413
:1008F000FD60042403702074242523F816E6FF33DA
:1009000095E0FED3EF9400EE648094805027742429
:100910002523F87617801E74242523F816E6FF3366
:1009200095E0FED3EF9400EE648094805007742429
:100930002523F8763B20A03CAF21EF3395E0FEEF76
:1009400064014E702F7F0AFE120FD320A026AF2A1B
:10095000EF3395E0FEEF64014E7005752A028014B6
:10096000EF64024E7005752A038009EF64034E7030
:1009700003752A0120A13AAF22EF3395E0FEEF6420
:10098000014E702D7F0AFE120FD320A124AF2AEF53
:100990003395E0FEEF64014E6017EF64024E701174
:1009A0000523AF23EF3395E0FEEF64064E7002F5AA
:1009B00023AF2AEF3395E0FEEF64014E7036AD1899
:1009C0007F0812100A7D0F7F0712100A7D0F7F0625
:1009D00012100A7D0F7F0512100A7D0F7F0412107E
:1009E0000A7D0F7F0312100A7D0F7F0212100A7D0D
:1009F00001020CE3AF2AEF3395E0FEEF64024E6094
:100A000003020C82AF23EF3395E0FEC3EF9403EEB5
:100A1000648094804003020B43EF4E7044C3E5159D
:100A20009432E5149400401AE52475F00A120E0D74
:100A3000FD7F0812100AE52475F00A120E0DADF0C4
:100A400080097D0F7F0812100A7D0F7F0712100AA0
:100A5000120FFFE52575F00A120E0DADF07F05802F
:100A60004FAF23EF3395E0FEEF64014E7061C3E5B5
:100A7000159432E5149400400F120FFFE52575F030
:100A80000A120E0DADF080097D0F7F0612100A7D4F
:100A90000F7F0512100AE52475F00A120E0DFD7F76
:100AA0000812100AE52475F00A120E0DADF07F074A
:100AB00012100AE52675F00A120E0DFD7F041210C1
:100AC0000AE52675F00A120E0DADF07F03806CAFBB
:100AD00023EF3395E0FEEF64024E7062C3E5159498
:100AE00032E5149400401AE52675F00A120E0DFD49
:100AF0007F0412100AE52675F00A120E0DADF08083
:100B0000097D0F7F0412100A7D0F7F0312100A1255
:100B10000FFFE52575F00A120E0DADF07F051210DE
:100B20000AE52475F00A120E0DFD7F0812100AE581
:100B30002475F00A120E0DADF07F0712100A7D0128
:100B4000020C79AF23EF3395E0FEEF64034E70465D
:100B5000C3E5159432E5149400401AE52775F00AB0
:100B6000120E0DFD7F0812100AE52775F00A120E0D
:100B70000DADF080097D0F7F0812100A7D0F7F07F1
:100B800012100AE528121001E52875F00A120E0D60
:100B9000ADF07F058051AF23EF3395E0FEEF6404A5
:100BA0004E7063C3E5159432E51494004011E528B6
:100BB000121001E52875F00A120E0DADF080097DC6
:100BC0000F7F0612100A7D0F7F0512100AE52775A8
:100BD000F00A120E0DFD7F0812100AE52775F00AC3
:100BE000120E0DADF07F0712100AE52975F00A12FA
:100BF0000E0DFD7F0412100AE52975F00A120E0D84
:100C0000ADF07F03806EAF23EF3395E0FEEF640518
:100C10004E7064C3E5159432E5149400401AE5293A
:100C200075F00A120E0DFD7F0412100AE52975F009
:100C30000A120E0DADF080097D0F7F0412100A7D9F
:100C40000F7F0312100AE52875F00A120E0DADF0A1
:100C50007F0512100AE528121001E52775F00A1227
:100C60000E0DADF07F0712100AE52775F00A120E7F
:100C70000DFD7F0812100A7D027F0212100A7D020C
:100C80008061AF2AEF3395E0FEEF64034E7059E5C3
:100C90001A75F00A84FD7F0812100AE51A75F00A29
:100CA00084ADF07F0712100AE51C75F00A84FD7F01
:100CB0000612100AE51C75F00A84ADF07F051210CB
:100CC0000AE51975F00A84FD7F0412100AE519750A
:100CD000F00A84ADF07F0312100A7D0F7F0212101C
:100CE0000A7D037F0112100AC374309517F5117441
:100CF000759516F510A2B2E433F51FA2B3E433F5EF
:100D000020A2A0E433F521A2A1E433F5227F147ED2
:070D100000120FD302083CA2
:100E3B00020800E493A3F8E493A34003F68001F2C5
:100E4B0008DFF48029E493A3F85407240CC8C333B8
:100E5B00C4540F4420C8834004F456800146F6DF87
:100E6B00E4800B0102040810204080901050E47EB7
:100E7B00019360BCA3FF543F30E509541FFEE4937C
:100E8B00A360010ECF54C025E060A840B8E493A343
:100E9B00FAE493A3F8E493A3C8C582C8CAC583CA6E
:100EAB00F0A3C8C582C8CAC583CADFE9DEE780BE26
:01106F000080
:100D1700E709F608DFFA8046E709F208DFFA803EBE
:100D270088828C83E709F0A3DFFA8032E309F608AB
:100D3700DFFA8078E309F208DFFA807088828C8313
:100D4700E309F0A3DFFA806489828A83E0A3F608C7
:100D5700DFFA805889828A83E0A3F208DFFA804CA1
:100D670080D280FA80C680D4806980F28033801078
:100D770080A680EA809A80A880DA80E280CA8033E1
:100D870089828A83ECFAE493A3C8C582C8CCC58359
:100D9700CCF0A3C8C582C8CCC583CCDFE9DEE78029
:100DA7000D89828A83E493A3F608DFF9ECFAA9F0A8
:100DB700EDFB2289828A83ECFAE0A3C8C582C8CCFE
:100DC700C583CCF0A3C8C582C8CCC583CCDFEADE17
:100DD700E880DB89828A83E493A3F208DFF980CC79
:100DE70088F0EF60010E4E60C388F0ED2402B40472
:100DF7000050B9F582EB2402B4040050AF23234519
:060E07008223900D6773C9
:100E0D00C2D530F707B2D563F0FF05F030E70CB26D
:100E1D00D5F4048463F0FF05F080018430D502F42D
:020E2D0004229D
:00000001FF
